:060000000A128A11472FCD
:100E0000FE00FE1F082F83137E18831700080800BA
:100E10000408FE0007308A007E0882070034493447
:100E20004E345434453452344634413443344934D6
:100E30004E34473420344C3443344434003420346A
:100E40002034503449344334203431343634663419
:100E500038343734373461340034831688018312D0
:100E600088010A128A11962700300A128A117C27FB
:100E700001300A128A11802700300A128A1178275D
:100E800011300A128A1180270A128A11462F830113
:060E90000A128A112D2F49
:100EF000F5008511C03ED72FF5008511803ED72F14
:100F0000F500851575080A128A1109270A128A1137
:100F100000380319080075080A128A1109270A12F5
:100F20008A11D7270A128A11F50A822F06308316F2
:100F30009F008501880183128511851005111430E9
:100F4000F8007930F700F70BA32FF80BA32FA82F89
:100F50000330831203138800851485100730F800CE
:100F60007D30F700F70BB22FF80BB22F8312FA2760
:100F70000A128A11F70BBA2F64008312FA270A1299
:100F80008A11F70BC12F640002308312031388000B
:100F9000851485102830D7270A128A110F30D727D9
:100FA0000A128A11EB270A128A110630D72F8312F0
:100FB0000313A0000D30F400F40BDC2F8312031395
:100FC000200E0F3988008514851020080F398800FD
:100FD00085148510080085110130D7270A128A115F
:100FE0000330F6009730F500F50BF42FF60BF42FD5
:100FF000F92F08000313851485104230F70008000C
:00000001FF
